:020000040800F2
:10000000700800202D020008E3080008DF0800083F
:10001000E108000845070008C30C000800000000C4
:100020000000000000000000000000007D09000842
:100030003D0800080000000049090008290A0008DE
:10004000470200084702000847020008470200086C
:10005000470200084702000847020008470200085C
:10006000470200084702000847020008470200084C
:10007000470200084702000847020008470200083C
:10008000470200084702000847020008470200082C
:10009000470200084702000847020008470200081C
:1000A000470200084702000847020008470200080C
:1000B00047020008470200087D0A000847020008BE
:1000C00047020008470200084702000847020008EC
:1000D00047020008190C0008470200084702000800
:1000E00047020008470200084702000847020008CC
:1000F00047020008470200084702000847020008BC
:1001000047020008470200084702000847020008AB
:10011000470200084702000847020008470200089B
:10012000470200084702000847020008470200088B
:1001300000F002F800F06BF80AA090E8000C82448E
:100140008344AAF10107DA4501D100F060F8AFF26B
:10015000090EBAE80F0013F0010F18BFFB1A43F0A5
:100160000103184764400000844000000A444FF037
:10017000000C10F8013B13F0070408BF10F8014B06
:100180001D1108BF10F8015B641E05D010F8016B4B
:10019000641E01F8016BF9D113F0080F1EBF10F8AF
:1001A000014BAD1C0C1B09D16D1E58BF01F801CBD2
:1001B000FAD505E014F8016B01F8016B6D1EF9D555
:1001C0009142D6D37047000000230024002500266A
:1001D000103A28BF78C1FBD8520728BF30C148BFAA
:1001E0000B607047642900F09F80752900F09C80A7
:1001F000782900F0D580632900F03482732900F05B
:100200003982002070471FB51FBD10B510BD00F02A
:100210006BFA1146FFF7F7FF01F0E0F800F089FAFA
:1002200003B4FFF7F2FF03BC01F097F809488047D9
:1002300009480047FEE7FEE7FEE7FEE7FEE7FEE7C8
:10024000FEE7FEE7FEE7FEE704480549054A064BE0
:10025000704700002D0A00083101000870020020DC
:100260007008002070040020700400207047000017
:100270000FB4044910B503AA029800F0FFF910BCAE
:100280005DF814FB0800002070B50446856900681D
:10029000C10601D5302600E02026C00707D070BD7A
:1002A000D4E9012130469047206A401C20626D1E2F
:1002B000F6D570BD70B5044685690078C00707D1D2
:1002C00070BDD4E9012120209047206A401C2062A3
:1002D0006D1EF6D570BD70B50C460546012A05D0D9
:1002E0002878800600D5EA69002302E0012305E0B2
:1002F0005B1C934202D2E05C0028F9D1A869E618A1
:10030000C01AA861286A184428622846FFF7BCFF73
:1003100004E0D5E9012114F8010B9047B442F8D369
:100320002846FFF7C7FF70BD2DE9F04106460024BF
:1003300010687529314616A510D0AFF3008000284B
:1003400002DA404213A507E031688A0701D512A5F9
:1003500002E0490704D511A5012401E0AFF30080B4
:1003600000210A2206F1240709E0B0FBF2FCB0FBF1
:10037000F2F302FB1C00303078541846491C002868
:10038000F3D123462A463046BDE8F04100F007B9D4
:10039000000000002D0000002B00000020000000E5
:1003A00070B504460D4621461068AFF300802188E1
:1003B000090502D50F4A7A4402E00E4A7A440E3209
:1003C000002104F1240305E000F00F060009965D0A
:1003D0005E54491C0028F7D120780023000704D57B
:1003E000702D02D009B1022311322046BDE87040C1
:1003F00000F0D5B86E3B00002DE9F05F8946044659
:100400004FF0000ADFF874B1FB44C0F820A020468A
:10041000E1688847002874D0252806D0D4E9012156
:100420009047206A401C2062F1E700265F46204684
:10043000E16888472028054607DB312D05D2781969
:1004400010F8200C08B10643F1E7B00701D526F0FB
:100450000406C4F81CA00027C4F818A02A2D09D04F
:10046000284600F073FF38B304EB8708303DC8F826
:10047000185019E059F8041B204604EB87029161DB
:10048000E1688847012F054618D1E069002820DA85
:1004900026F020061DE0D8F8180000EB800005EBE0
:1004A00040003038C8F818002046E1688847054603
:1004B00000F04CFF0028EED1012F0AD02E2D08D1DC
:1004C0002046E16888477F1C0546022F46F020063B
:1004D000C4DBA069002803DA404246F00106A061AF
:1004E000F00701D026F010066C2D0BD0682D09D036
:1004F0004C2D39D06A2D35D0742D35D07A2D33D08E
:1005000016E038E0E1682F4620468847B8420546A5
:1005100009D16C2F26D04FF48060E1680643204655
:100520008847054604E06C2F1AD04FF480700643CC
:100530000DB3A5F14100192802D8203546F4006614
:100540004A462946204626604E46FFF74BFE80B1BC
:1005500001280BD0F61D26F0070000F1080956E728
:100560004020E4E78020D8E70020D6E706F1040920
:100570004DE7284652E7206ABDE8F09F443B000063
:10058000704770477047704710B500F089F80068F1
:1005900010BD10B5044600F083F8046010BD2DE9CD
:1005A000F0470D4699469246044600F1240801683A
:1005B000880604D5E06921F01001216000E00120E7
:1005C000A84201DD471B00E00027A1697A1902EB70
:1005D0000900081AA0612078C00602D42046FFF75F
:1005E00053FE002608E0D4E901211AF806009047DE
:1005F000206A401C761C20624E45F4DB2078C00641
:100600000AD52046FFF740FE06E0D4E9012130205C
:100610009047206A401C2062381EA7F10107F4DCD5
:1006200007E0D4E9012118F805009047206A401C32
:100630002062281EA5F10105F3DC2046FFF73AFEF3
:100640002078000602D50220BDE8F0870120FBE7F4
:1006500010B5436913B1AFF3008001E0FFF73BFE33
:10066000012010BD127800F124010A7000224A70A6
:100670000122EDE711684FF0FF32E9E7074B70B553
:100680000D467B4400F015F80446284600F024F897
:1006900010B14FF0FF3070BD204670BD3F0D00001F
:1006A000004870470C02002001694A1C026108786A
:1006B000704700B58FB0CDE90131002105910549A2
:1006C0007944CDE9031011466846FFF795FE0FB057
:1006D00000BD0000E5FFFFFF007B00F080007047D9
:1006E000004870470C0200207546FFF7F9FFAE4640
:1006F00005006946534620F00700854618B020B52E
:10070000FFF7A2FDBDE820404FF000064FF00007C4
:100710004FF000084FF0000B21F00701AC46ACE8A9
:10072000C009ACE8C009ACE8C009ACE8C0098D4616
:10073000704710B50446AFF300802046BDE8104076
:10074000FFF76EBDFEE70000044B012282401868EF
:1007500009B1104300E090431860704700740040F6
:1007600030B5084C236840F6FE7282409343D1E9CD
:1007700000252A43D1E902510D432A4382401A43FE
:10078000226030BD00740040034A08B510440830B0
:100790000090016008BD00000074004030B585B0D5
:1007A0000121042000F0DEF80121480700F0CEF816
:1007B0001020ADF8100000248DF8134003200F4DD9
:1007C0008DF8120004A9284600F039F810212846B7
:1007D00000F083F80220CDE90240009469460194BC
:1007E0000020FFF7BDFF01210020FFF7ADFF002132
:1007F0000846FFF7C9FF05B030BD00000008014002
:1008000010B503F095FA0B4903F0B0F90C2103F091
:100810004DFB03F079F94FF06632074B02F00CFC08
:1008200002F01CFB03F064FA81B2BDE81040002026
:10083000FFF7AABF00007A4466660A407047F0B529
:10084000CC78002204F00F03E40601D58C78234312
:100850000C784FF00F0C14F0FF0F4FF0010E1BD06F
:1008600005680E880EFA02F42640A64210D19600C2
:100870000CFA06F725EA070703FA06F5CE783D439A
:10088000282E02D0482E02D002E0446100E004612C
:10089000521C082AE5D305600A88FF2A1CD944683F
:1008A000002202F108060EFA06F50E882E40AE422E
:1008B0000ED196000CFA06F7BC4303FA06F7CE7881
:1008C0003C43282E00D14561CE78482E00D10561E9
:1008D000521C082AE5D34460F0BD01617047FEE771
:1008E000FEE7704730B50F23C27801780125F2B1D9
:1008F000144A126801F1E02102F4E062C2F5E062FC
:10090000120AC2F10404D3404278A24084781C4009
:100910001443220181F80024007800F01F018D406B
:100920004009800000F1E020C0F8005130BD01F026
:100930001F0085404809800000F1E020C0F8805188
:1009400030BD00000CED00E070470000044A0029B3
:10095000D16901D0014300E08143D16170470000BB
:1009600000100240044A0029916901D0014300E0CF
:100970008143916170470000001002407047000001
:100980000CB50022264800920192016841F48031A2
:1009900001604FF4A063016801F4003101910099F6
:1009A000491C0091019911B900999942F3D101684C
:1009B000890333D5012101911A490A6842F01002D6
:1009C0000A600A6822F003020A600A6842F0020222
:1009D0000A604168416041684160416841F480615A
:1009E0004160416821F47C114160416841F4E811A3
:1009F0004160016841F08071016001688901FCD5A6
:100A0000416821F003014160416841F00201416009
:100A10004168C1F381010229FAD10CBD01920CBDDC
:100A20000010024000200240704700000F4810B53F
:100A3000016841F00101016041680D4A11404160C7
:100A400001680C4A11400160016821F480210160B5
:100A5000416821F4FE0141604FF41F018160FFF7FE
:100A60008FFF05494FF00060086010BD0010024084
:100A70000000FFF8FFFFF6FE08ED00E010B50C4C9B
:100A80000121204600F031F801280AD10948016906
:100A900088470021204600F03EF86421204600F0FF
:100AA00038F82046BDE81040012100F008B80000E9
:100AB0000008004050000020C94301827047C9432C
:100AC000018270470029018802D041F0010101E054
:100AD00021F0010101807047808C704702460020A0
:100AE000128A0A4200D00120704702460020138A71
:100AF00092890B4202EA010202D0002A00D00120B2
:100B00007047002A828901D00A4300E08A4382812B
:100B100070478185704781847047000030B5028836
:100B20001B4C1C4DA0420DD0A8420BD0B0F1804F01
:100B300008D0194B984205D0184B984202D0184B58
:100B4000984203D122F070034A881A43154B984209
:100B500006D0154B984203D022F44073CA881A433A
:100B600002808A8882850A880285A0420AD0A8422B
:100B700008D00E4A904205D00D4A904202D00D4A4C
:100B8000904201D1097A01860121818230BD0000A5
:100B9000002C0140003401400004004000080040E7
:100BA000000C0040001000400014004000400140D4
:100BB00000440140004801407FB50D460446012134
:100BC0000420FFF7C3FEADF804400020ADF800504C
:100BD000104CADF80600ADF8020069462046FFF75C
:100BE0009DFF012241212046FFF78BFF1E218DF83A
:100BF0000C1003218DF80D108DF80E1001208DF8CA
:100C00000F0003A8FFF76EFE01212046FFF75AFFF1
:100C10007FBD00000008004070B5154C40F2255122
:100C2000204600F02BF800280ED0204600F045F8B2
:100C3000104AC1B21088030406D444044FF00003E4
:100C400006D50A2901D0138070BD40F400400DE0A4
:100C50000D2909D0C0F30D04074D401C80B2295561
:100C60001080C728EFD870BD40F48040108070BD60
:100C700000380140040000204401002070B501F05C
:100C80001F0501260024C1F3421306FA05F2012BC9
:100C90000FD0022B0FD0838A4FEA11210088134214
:100CA00006FA01F600EA060001D000B10124204650
:100CB00070BD8389F0E7038AEEE78088C0F30800FF
:100CC0007047FEE7490050EAC12018BF04204A0DD2
:100CD00018BF40F0010040F2FF72B2EB515F08BF55
:100CE00040F00200012808BF052070472DE9F74FAA
:100CF000144694B00021C4E902111599079121F01E
:100D00000045C9498D4206DC1599C4E9000117B0B8
:100D10000020BDE8F08FC549DFF814A3A9423CDDEF
:100D20000799C44E0029C44FC44A1599534619DD8A
:100D300002F000FE554506D0C14AC24B02F0FAFD52
:100D4000C4E900010AE04FF0D352BE4B02F0F2FDBD
:100D500032463B4602F0EEFDC4E9000117B0012027
:100D6000BDE8F08F02F0ACF8554506D0B44AB54B5B
:100D700002F0A6F8C4E900010AE04FF0D352B14BEB
:100D800002F09EF832463B4602F09AF8C4E90001B0
:100D900017B04FF0FF30BDE8F08FAB49A94215996D
:100DA00078DB21F0004183468846A84AA84B02F030
:100DB0009BFB0022A74B02F083F802F0D1FA0990C6
:100DC00002F02BFB06460F469C4A534602F08CFB72
:100DD00043465A4602F0BCFC80468A46984A994BE4
:100DE0003046394602F080FB2A0D01250B9242461F
:100DF000534602F0ADFC032DC4E9000139D00B9835
:100E0000C1F30A51401A05EB45111139814230DA1C
:100E10009148C346784400EB0510CDF80CA00C9027
:100E2000D0E900233046394602F05EFB02460B460D
:100E3000049106905846039902F07CFD80468A464C
:100E400002460B465846039902F074FD049B069A2D
:100E500002F070FD83460C9803913946D0E90223D5
:100E6000304602F041FB5A46039B02F063FD6D1CC5
:100E7000BDE707980028A2BF099817B0BDE8F08F1A
:100E8000616881F000416160099817B04042BDE897
:100E9000F08FFFE784461598C1F31301C0F30A50A1
:100EA000A0F2F5304FEA601800F01F06C6F12000EE
:100EB000139000200690079041F4801E05206D4697
:100EC00076B1664A08EB00017A4452F8213002EB11
:100ED0008101B3404A68139922FA01F1194305E0F0
:100EE0005F4908EB0002794451F82210A1FB0E275C
:100EF000A1FB0C131A449A4234BF0123002303EBD5
:100F0000070A05EB8003D3E901B70F448F4234BFD2
:100F10000121002193448B4411B1934502D903E090
:100F2000934501D2012100E00021C3E901B75144FA
:100F300045F82010011EA0F10100C1DC0298059FB8
:100F400000F10050800F12900298DDE903568000F6
:100F500002F063FA834628460D9102F075FA6FF0AD
:100F60001D0202F075FFCDE90E01304602F06CFA69
:100F70006FF03D0202F06CFF80468A46384602F070
:100F800063FA6FF05D0202F063FF07464246534684
:100F9000119101F095FFDDE90E2301F091FF5A4612
:100FA0000D9B01F08DFF00250E465A4628460D9BED
:100FB00002F0C0FCDDE90E2302F0BCFC42465346C1
:100FC00002F0B8FC3A46119B02F0C2FBDFF898A091
:100FD000244A534602F088FA07468846234A244B9F
:100FE0003146284602F080FA3A46434601F068FF4F
:100FF000074688464FF0A84253463146284602F03D
:1010000073FA3A46434601F05BFF159A12F0004F1F
:1010100004D0129A81F0004152421292C4E90001B8
:10102000129817B0BDE8F08FFB21E93F7CD9024050
:10103000FB21F93F7370032E8A19A33B0000405433
:101040003163621A61B4D03DFB21394183C8C96D57
:10105000305FE43F0000E03F103200008C310000C0
:101060006E310000182D4454FB21F93D3326A611A2
:10107000460B113C2DE9FF4D21F0004807460C4678
:10108000B8F1795F08DA02F06BF9002801BF00209F
:10109000324904B0BDE8F08D3A4623461046194661
:1010A00002F022FA054602462D480E460B4606215E
:1010B000784400F05DF82A46334602F015FADDE97F
:1010C000022382468B463846214602F00DFA04463A
:1010D0000F4652465B462846314602F005FA224644
:1010E0003B4602F027FC07468A464FF0FF3228466F
:1010F000314602F0ADFE1B4A90450ADA3A465346A5
:1011000002F018FC04B00022BDE8F04D134B02F0D1
:101110001FBB154A4245A8BFA8F500154FF00004B3
:10112000B8BF124D22462B4602F004FC0646884604
:1011300022462B460020094902F0FCFB04460D46DE
:101140003A4653463046414602F0F4FB04B022468C
:101150002B46BDE8F04D02F0FBBA00000000F03F66
:101160003C2F00003333D33F0000E93F0000D23F63
:101170002DE9F0414F1E00EBC7010446D1E9000103
:1011800015461E4637F006020DD02A46334602F0B9
:10119000ABF97F1E04EBC703D3E9002301F090FEF7
:1011A00037F00602F1D1022F25D0042F13D0062FDD
:1011B00018BFBDE8F0812A46334602F095F9D4E91C
:1011C0000A2301F07DFE2A46334602F08DF9D4E968
:1011D000082301F075FE2A46334602F085F9D4E96A
:1011E000062301F06DFE2A46334602F07DF9D4E96C
:1011F000042301F065FE2A46334602F075F9D4E96E
:10120000022301F05DFE2A46334602F06DF9D4E96F
:101210000023BDE8F04101F053BE00002DE9FF4D71
:10122000054621F0004084B00C46B0F1795F0BDA3E
:101230002846FFF747FD042808BF00F07FF828463E
:1012400008B02146BDE8F08D2A460B46104602F054
:101250004BF906460F462A46234602F045F98046DA
:1012600026488A4632463B4605217844FFF780FFF0
:1012700083461098029160B3214A224B4046514662
:1012800002F032F9CDE900015A4640465146029B30
:1012900002F02AF982468846DDE906014FF0FF3266
:1012A00002F0D6FD5246434602F044FB32463B462E
:1012B00002F01AF9DDE9062302F03CFBDDE9002328
:1012C00002F038FB08B02A462346BDE8F04D02F094
:1012D0003FBA0B465A463046394602F005F9084AED
:1012E000084B01F0EDFD4246534602F0FDF808B010
:1012F0002A462346BDE8F04D01F0E2BD822E0000F3
:10130000495555555555C5BF00221346104601494C
:1013100001F092BE0000F03F012202F099BD01F001
:10132000CFBD002213461046114601F085BE40F2A3
:10133000013200204FF0E04102F08ABD024A002055
:10134000110702F085BD000001FDFFFF30380A28BB
:1013500001D2012070470020704770470B4949882F
:1013600048434FF0E021486100238B61086940F059
:10137000010008610869C20701D0C003FAD50869F5
:1013800020F0010008618B61704700000000002020
:101390000B49097848434FF0E021486100238B61F5
:1013A000086940F0010008610869C20701D0C00364
:1013B000FAD5086920F0010008618B6170470000D0
:1013C0000000002004490A885206FCD5024AC1B236
:1013D000121D1180704700000038014008B5FFF76A
:1013E000DDF92F4C2F4D304A304B2046294600F076
:1013F00071F881460F4600224FF08043204629466F
:1014000000F068F84FF06632294B02F0A1F900F0C5
:101410009FFD82468B46274A274B2046294602F0ED
:1014200063F800F045FD80460091244A244B504665
:10143000594602F059F84246009B02F055F84A46D8
:101440003B4601F03DFD00221E4B02F04DF800220C
:101450001D4B01F035FD01F0B3FF80B2FFF7D0F96D
:101460001A4A1B4B20462946B6B101F029FD00223D
:1014700004460D46134601F0FBFF00D80126084A3A
:10148000084B2046294601F02FFFACD1002642F23E
:101490001070FFF763FFA6E702F04CFAE7E70000E1
:1014A000AAF1D24D6210FD3F696FF085C954E53F46
:1014B00066660A4098C0ADBB796A3F40CDCCCCCCC3
:1014C000CCCCEC3F00208C4000309140FCA9F1D204
:1014D0004D62503F2DE9F04D1D460C4698B0174621
:1014E00021F0004123F00043002814BF4FF0010C0D
:1014F0004FF0000C0CEB440CFE4A0CEB02064FEADA
:10150000620C66452BD33E0018BF012606EB45064C
:101510001644F94A964222D3F84A53EA070C02D0FD
:10152000944205D148B918B000201146BDE8F08DAD
:10153000002808BF4FF0000C01D04FF0010C0CEB5D
:10154000440212F5001F0AD8002F14BF4FF0010CFF
:101550004FF0000C0CEB450212F5001F07D918B034
:101560003A462B462146BDE8F04DFFF7D8BE002293
:10157000DFF88CA3002CB8BF534526DADFF884C30C
:101580006345A8BF022220DADFF870C39C451CDC4B
:10159000DFF874C30CEB235CBCF1140F08DDCCF155
:1015A000340627FA06FC0CFA06F6BE420DD108E016
:1015B0005FB9CCF1140623FA06FC0CFA06F69E423B
:1015C00003D10CF00102C2F1020251EA000C19D160
:1015D000002D17DA002C18BF022A01D0012A07D0EB
:1015E0000220FEF7D6FF18B0BDE8F04DFFF78CBE25
:1015F0000220FEF7CEFFFFF787FE18B081F0004112
:10160000BDE8F08DB7F1000C6CD1534525D104F144
:10161000804212F5801201BF00280020B74918B09F
:1016200008BFBDE8F08DB548884207DC002DA1BF9A
:101630006046294618B0BDE8F08D07E0281E05DA9F
:1016400080F0004118B06046BDE8F08DAF497944A4
:10165000D1E9000118B0BDE8F08DDFF8A0C2634504
:1016600025D1002D1FDA19B1514512D1D8B909E0A1
:10167000002840F0EC82A24A214618B062F31E0115
:10168000BDE8F08D0020214618B060F31E01BDE8D2
:10169000F08D08DA18B02346BDE8F04D0246002070
:1016A000614601F0C9BC18B02146BDE8F08D514536
:1016B00018DAB5F1804F0DD0A5F1005CBCF1FF5CEC
:1016C00010D1B4F1000C0DDB18B06146BDE8F04D4F
:1016D00000F03EBC234618B00246BDE8F04D194666
:1016E00001F002BF060024F0004C3BD1D9B15145B6
:1016F00033D1002C06DD002DA1BF0020514618B0CB
:10170000BDE8F08D002C01DD002D1BDB002C13DA71
:10171000002D11DB012A4FF0000014BF78497C49ED
:1017200018B0BDE8F08D022A18BF002C0AD0012A9B
:1017300008D1002C06DA0AE0002CB8BF002D11DA1F
:10174000012A04D0002018B00146BDE8F08D18B081
:1017500000204FF00041BDE8F08DA1F14050B0F104
:101760007F601AD0012000EBE47050EA020421D01F
:10177000624C521E4FF0000B104304BF4FF0000BA1
:10178000644C654883427CDD644A654893421FDDB2
:10179000884217DB002D25DB37E0002C00DA4AB148
:1017A000022A0CBF01204FF0FF3018B0BDE8F04D09
:1017B00001F033BE0120FEF7ECFE18B0BDE8F04D9D
:1017C000FFF7AFBD4D4A8A4202DC002D0ADC1CE067
:1017D000814202DA002D18DA04E0484B994220DDFC
:1017E000002D12DD0220FEF7D4FEFFF7A0FD054616
:1017F0000E46002253465846214601F075FE18B0A9
:1018000066F31E012846BDE8F08D0220FEF7C1FEFA
:10181000FFF794FD0A46214618B062F31E01BDE8A9
:10182000F08D00223046614602F084F880460E4674
:101830006FF0010202F00CFB4FF05532394B01F012
:1018400087FF4246334601F04FFE0022364B01F03F
:101850007FFF82464246334604911046194601F006
:1018600043FE5246049B01F03FFE8A4600904FF033
:10187000C0422E4B4046314601F036FE2C4A2B4BDF
:1018800000E027E0CDE906015146009801F02CFE6A
:1018900082460191274A284B4046314601F024FEFA
:1018A0005246019B02F046F882460B4602460591DD
:1018B000DDE9060101F004FBDDE906230026884688
:1018C000304602F037F85246059B01F041FF0246D0
:1018D00000F07EB90020B1F5801F07DA35223046CE
:1018E000614602F0B5FA06466FF0340000EB215075
:1018F00024E00000FFFF1F00FFFF0F000000F03F8B
:101900000000F07F0000404301FCFFFFCE290000F3
:101910000000F0FF0000F0BF0000E0410000F043D5
:10192000FFFFEF3F5555D53F0000E03F4715F73F1C
:10193000FE822B6544DF5DF80BAE543EA0F2FF3013
:101940000190C1F3130040F07F6141F040510291DA
:10195000FE498842D8BF002004DDFD498142C8BF4E
:10196000012001DD0D9008E000200D900198401C41
:1019700001900298A0F5801002900299F5487844F1
:101980000B910D9900EBC100D0E900230F93304675
:101990000A920B9901F0CEFFCDE90601DDE90A219B
:1019A00030460F9B01F08CFA02460B460020EA49B4
:1019B00001F042FB059102460B460090DDE906016D
:1019C00001F092FD1490E5488A464FF000087844F3
:1019D0000299006812904FF0005040EA61010D98A2
:1019E0000F9B01EB804000F5002109910A9A1298A3
:1019F00001F0A0FF32460B9B01F0AAFE424653467F
:101A000001F072FD0646029140465146099B129A2A
:101A100001F06AFDDDE9062301F09AFE3246029BE1
:101A200001F088FF059B009A01F05EFD0091149A79
:101A3000049053461046194601F056FD06460246EC
:101A4000C7480B46029106217844FFF791FBCDE988
:101A50000510029B32461046194601F045FDDDE9AE
:101A6000053201F041FD05910646534640461946B0
:101A7000149A01F025FA009B049A01F035FD3246D4
:101A8000059B01F01DFACDE905104246534610466C
:101A9000194601F029FD0022B24B02910A9001F093
:101AA0000FFADDE9053201F00BFA0E464246AD4B66
:101AB000404601F03FFF029B0A9A01F03BFFDDE93F
:101AC000053201F045FE424602910A903346104627
:101AD000514601F009FDCDE906015346149A0299D9
:101AE0000A9801F001FD8A46029033464246009969
:101AF000049801F0F9FC5346029A01F0E1F982469C
:101B00000B4602460591DDE9060101F0D9F9DDE950
:101B1000062300208846064601F00CFF5246059B2E
:101B200001F016FE824609914FF060428E4B30461E
:101B3000414601F0D9FC049006918C4A8A4B5046EC
:101B4000099901F0D1FC82460291894A894B3046BD
:101B5000414601F0C9FC5246029B01F0B1F9864BA7
:101B60007B440D9A03EBC203D3E9002301F0A8F9EB
:101B70000E900791019801F050FC0591DDE90613E4
:101B800082460E9A049801F09BF97C4A7A440D9B98
:101B900002EBC303D3E900230093029201F090F912
:101BA0005246059B01F08CF9002688465246304685
:101BB000059B01F0BFFE009B029A01F0BBFE069B55
:101BC000049A01F0B7FE079B0E9A01F0C1FD024690
:101BD00000200B4602903846294601F085FC8246DB
:101BE00001912B4638461946029A01F0A3FE32466F
:101BF000434601F079FC5246019B01F061F907462A
:101C00008A46324643462946029801F06DFC054655
:101C10000E463A46534601F053F9594A88469142D6
:101C200021DBA8EB020353EA000210D12A46334617
:101C300001F080FECDE90401524A534B384651462B
:101C400001F03EF9DDE9042301F04CFD21D2022030
:101C5000FEF79FFCFFF76BFB0A46214618B062F3C4
:101C60001E01BDE8F08D494B28F000429A4210D386
:101C7000474A08EB020353EA00027FF4C6AD2A4646
:101C8000334601F057FE3A46534601F02BFD7FF6EE
:101C9000BCAD0022019228F000403E493E4A01EBD3
:101CA0002051824223DA481C4FF4801121FA00F0BF
:101CB00040443A4AC0F30A517A44394BA1F2FF3109
:101CC000CB4020EA0303C0F3130040F48010C1F1BD
:101CD0001401C84012680190B8F1000FBCBF404227
:101CE00001902846314601F025FE05460E462A465B
:101CF00033463846514601F0E3F84FF000084246BB
:101D0000284B4046059101F0EFFBCDE90601264A3C
:101D1000264B4046059901F0E7FB009102902A46C8
:101D200033464046059901F005FE3A46534601F018
:101D30000FFD1F4A1F4B01F0D7FB009B029A01F0D9
:101D4000BFF80746884602460B4635E08E980300EA
:101D50007AB60B00E62500000000F03F4E2600009A
:101D60004C2500000000084009C7EE3FFD033ADCA7
:101D7000F5015B14E02F3EBE24240000E8230000A0
:101D800000009040FE822B654715973C00CC9040A8
:101D900000346F3F01FCFFFF0000E03F64230000C0
:101DA000FFFF0F00432EE63F396CA80C615C20BE9C
:101DB000EF39FAFE422EE63FDDE9060101F080F838
:101DC000DDE9062305460E4601F0B4FD3A464346DA
:101DD00001F0BEFC0F462A463346009010461946D5
:101DE00001F082FB824602462E4888460B460521BA
:101DF0007844FFF7BDF95246434601F075FB2A4689
:101E0000334601F0A5FC80468A463B4628463146CB
:101E1000009A01F069FB3B46009A01F051F80691E7
:101E2000009000224FF080434046514601F082FD71
:101E30000F460C90424653462846314601F054FB6B
:101E40003B460C9A01F0F8F8069B009A01F072FDEF
:101E50002A46334601F06EFD0022134B01F078FC58
:101E6000054601980E4601EB00510815002810DCCC
:101E700028463146019A01F0EBFFFEF723FF0428C4
:101E800008BFFFF75BFA28463146019A01F0E0FFF0
:101E900005460B4618B02A4658462146BDE8F04D87
:101EA00001F022BBD42100000000F03F0068704721
:101EB00000B5254B21F0004287B09A4203DC002296
:101EC000134600922BE0214B9A4208D140B94FF0C3
:101ED0000100FEF75EFBFFF724FA07B000BD03DB4D
:101EE000FFF71AFA07B000BD02AAFEF7FFFE10F0D6
:101EF00003014FF001000DD0012914D002291AD09E
:101F00000DF1080C9CE80F00FFF7B4F807B081F062
:101F1000004100BD0DF1080C00909CE80F00FFF798
:101F20007DF907B000BD0DF1080C9CE80F00FFF72C
:101F3000A1F807B000BD0DF1080C00909CE80F005F
:101F4000FFF76CF9E2E70000FB21E93F0000F07FBA
:101F50002DE9F04106460F4601F006FC041E0D4631
:101F600018BF0120284320F00040C0F17F6000F13D
:101F7000E040C00F0ED0301C18BF0120384320F0C5
:101F80000040C0F17F6000F1E040C00F04BF0120BD
:101F9000FEF7FFFA20462946BDE8F08170B594B0FF
:101FA000064613AB11AA694600F0D8F9002824D1DF
:101FB0008DF840001D4C042514E0206805EBC1019C
:101FC00013AB405812AA08A900F0C8F9002814D190
:101FD000694608A800F0EAFB88B19DF84000401C63
:101FE0008DF84000207D9DF840108842E5D8207D86
:101FF0009DF8401088420ED1042014B070BD9DF8A9
:1020000048009DF84410884201D90220F5E79DF868
:102010004000A075EBE710A9304600F053FA002805
:10202000EBD19DF8400060750020E6E750000020ED
:102030002DE9F0417E4E9AB0B57D307DA8427CD925
:102040000421306801EBC50119AB405818AA10A94A
:1020500000F084F910A977A0FEF70AF900240DF129
:10206000180832E0308B0121A140084217D022210C
:1020700072A0FEF7FDF8204600F08CFA811970A0DE
:102080002431FEF7F5F822216CA0FEF7F1F8204686
:1020900000F080FA3044243048F824000BE0204659
:1020A00000F078FA3044416A48F82410F07D00B31B
:1020B00064A0FEF7DDF89DF86000401E844202D067
:1020C00062A0FEF7D5F8641CE4B29DF8600084427B
:1020D000C8D35FA0FEF7CCF800F0A6FA707D0B28FD
:1020E00014D2DFE800F0080D31384048525E6B78BA
:1020F000890058A0DDE7306850F83500804704E0DB
:10210000306850F8351006988847074600F054FAB2
:102110009DF8640001286ED04FA0FEF7A9F896F84C
:10212000EC0000280DD0D6F8F0000A21B0FBF1F247
:1021300001FB1202B0FBF1F100E002E047A0FEF764
:1021400097F81AB0BDE8F081306850F83520DDE925
:1021500006019047D9E7306806AC50F8353094E86E
:1021600007009847D1E7306806AF50F8354097E848
:102170000F00A047C9E70A980090306806AF50F8F2
:10218000354097E80F00A047BFE7DDE90A01CDE938
:102190000001306806AF50F8354097E80F00A047BF
:1021A000B3E70AAB06AF93E807008DE80700306895
:1021B00050F8354097E80F00A047A6E70AAC06AFF5
:1021C00094E80F008DE80F00306850F8354097E82C
:1021D0000F00A04799E70BAC06AF94E80F0001ACE5
:1021E00084E80F000A980090306850F8354097E86E
:1021F0000F00A04789E711E00CAC06AF94E80F0090
:1022000002AC84E80F00DDE90A01CDE90001306885
:1022100050F8354097E80F00A04776E7F07D394643
:1022200018B116A0FEF724F879E717A0FAE7000026
:10223000500000200D0A25732800000025630000CF
:102240002573000030582558000000002C000000C5
:1022500029000000256C75003B0D0A0046756E6371
:1022600074696F6E2052756E2054696D653A2564ED
:102270002E2531646D730D0A000000003D30582595
:10228000583B0D0A000000003D256C753B0D0A000F
:10229000F0B500252E462F462C4603782C2B03D074
:1022A000292B04D01BB103E014B9012600E05CB374
:1022B00017B1222B26D026E0A3F1300CBCF1090F78
:1022C00015D9A3F1610CBCF1050F10D9A3F1410C94
:1022D000BCF1050F0BD9582B09D0782B07D0222B36
:1022E0000CD0202B1ED02C2B1CD0FF270CE05EB96D
:1022F000612B00D3203B01F8013B13E026B90127F5
:102300003C460FE0002426B10020087017702846D4
:10231000F0BD3CB15C2B02D16D1CEDB2401C0378CA
:1023200001F8013B6D1CEDB2401CB6E730B500254D
:1023300015700AE001F8014B1478401C641CE4B2EB
:1023400014709C4201D3012030BD0478202C01D0B0
:10235000002CEFD10D70002030BD00002DE9FF4FA3
:10236000002482B089469846A24627460125264683
:102370002246EB46029915E0202810D002F07F0398
:10238000052B0CD202B9802202F07F03042B01D16D
:102390002A280AD1521C0BF80300D2B201E0852A88
:1023A00004D0491C08780028E6D16AB102F07F0207
:1023B00000200BF8020041A1584600F0F7F938B1AF
:1023C000012188F8001000224FF00008029B15E060
:1023D000002088F80000F6E708F1010000F0FF088F
:1023E00013F8010F202801D02A2807D1184600F041
:1023F00085F9282802D02A2800D0C2461878282833
:1024000001D00028E8D10299BAF1000F01D051445F
:10241000491C4FF000084346087888B1282804D0AA
:10242000292806D0222810D011E083B9641CE4B218
:102430000DE063B924B1641E14F0FF0402D00DE076
:102440004FF00108012F27D02FE04BB100234CB1F2
:102450002C280CD0202816D0282814D05AB110E0EF
:102460000123F4E7202815D009F8010B12E001251B
:10247000521CD2B207E0052E03D20BF80600761CE0
:10248000F6B26D1CEDB2012C04D1022D02D1032550
:102490007F1CFFB2491CBFE700200BF8060007A114
:1024A000684600F083F900B90027049807700020FF
:1024B00089F8000006B04046BDE8F08F766F696489
:1024C000000000002DE9F04300248946304DB5B0EE
:1024D000214622466B18491CC9B29A760A29F9D3BB
:1024E00002E010F8011F99B101782829F9D1461CA2
:1024F0004FF0010833AA69463046FFF7C9FE06448B
:102500009DF8CC0040B1012824D0FF2836D10BE043
:10251000012035B0BDE8F0839DF8000070B334A908
:10252000684600F0F3F808B10220F2E7204600F018
:1025300031F8284434994162298B08FA04F0814328
:102540002983042029198876641CE4B20A2C15D941
:102550000320DEE7684600F03EF9471C204600F005
:1025600019F841196846243100F02CF9298B08FA32
:1025700004F00143281929838776E5E73078292874
:1025800001D00028B6D189F800400020C1E7000042
:1025900050000020024610B500200146054B05E022
:1025A0005C18491CA47EC9B22044C0B29142F7D342
:1025B00010BD00005000002070B50B4D01212846D1
:1025C000FEF78CFA094C012806D1D4F8F0004FF63A
:1025D000FF710844C4F8F0002846FEF77DFA54F86D
:1025E000F01F0844206070BD00080040500000202B
:1025F00000EBC00101EB00104FF0FF3101EB800058
:1026000010B581B24FF47A70FEF7D6FA0149012075
:10261000C87510BD500000200346012000E058435B
:10262000491EC9B2FBD2704710B5094C01212046A2
:10263000FEF742FA4FF6FF712046FEF76AFA0021D4
:102640002046FEF768FA03490020C1F8F00010BDEB
:1026500000080040500000202DE9F041164E30885F
:10266000010426D51549C0B2154F00250D54B9688F
:102670001248884704000FD0104800F0B5F8012830
:1026800001D0040014D0012C09D0022C09D0032C55
:1026900009D0042C0CD108E0F868804708E009A0B4
:1026A00004E00BA002E00DA000E00FA0FDF7E0FDAC
:1026B0003580BDE8F08100000400002044010020C6
:1026C00050000020BAAFCAFDB4EDCEF3210D0A00D0
:1026D000B2CECAFDB4EDCEF3210D0A00B2CECAFDD2
:1026E000CCABB6E0210D0A00CEB4D5D2B5BDC6A59F
:1026F000C5E4B5C4BAAFCAFD210D0A0010F8011F28
:10270000202901D10028F9D1C8B270472DE9F04144
:102710000024884605460A260C600178A1F13002A3
:10272000092A0DD9113A052A0AD9582905D011F0DC
:10273000FF0F0CD00120BDE8F081012C02D0F9E799
:10274000412900D31026641CE4B2401CE5E7102E9A
:1027500001D084B112E0032C01D20220EBE72878EB
:10276000302802D16878582801D00320E3E7A41E5E
:10277000E4B2AD1C01E00420DDE70CB1641EE4B25C
:102780002F783846303F092F01D9A0F1370721466D
:102790003046FFF741FFD8F8001007FB0011C8F8DA
:1027A000001015F8010F0028E7D1C4E702780B7874
:1027B0009A4201D00120704712B1401C491CF5E734
:1027C0000020704702780A700278002A02D0401C6C
:1027D000491CF7E77047002102781AB1491CC9B2B9
:1027E000401CF9E708467047F0B58DB004461E233B
:1027F00008AA6946FFF79AFD0990002872D19DF852
:102800002000271800253E4C8DF820509DF8200010
:1028100054F820106846FFF7C9FF38B19DF8200032
:10282000401CC0B28DF820000728EFD39DF820008F
:102830000426344C072855D2DFE800F00404395A46
:10284000605F5E0030A0FDF713FD30A0FDF710FDC6
:102850003EA0FDF70DFD4DA0FDF70AFD5BA0FDF7C5
:1028600007FD6AA0FDF704FD78A0FDF701FD85A036
:10287000FDF7FEFC8AA0FDF7FBFC8FA0FDF7F8FC3E
:1028800093A0FDF7F5FC98A0FDF7F2FC9DA0FDF7E5
:10289000EFFCA3A0FDF7ECFCAFA0FDF7E9FCBCA0AA
:1028A000FDF7E6FCC7A0FDF7E3FCD3A01BE016A0F4
:1028B000FDF7DEFCE0A0FDF7DBFC8DF820500BE01F
:1028C000216806EBC0000958EBA0FDF7D1FC9DF88C
:1028D0002000401C8DF82000217D9DF820008142C1
:1028E000EED84EE24FE2FDF7C3FC00200DB0F0BD84
:1028F00005A0FDF7BDFCC3E124E204E2E3E1000032
:102900000C000020500000200D0A00002D2D2D2D60
:102910002D2D2D2D2D2D2D2D2D2D2D2D2D2D2D2DE7
:102920002D2D2D2D55534D4152542056332E312DE2
:102930002D2D2D2D2D2D2D2D2D2D2D2D2D2D2D2DC7
:102940002D2D2D2D2D2D2D200D0A00002020202095
:1029500055534D415254CAC7D3C9414C49454E54B1
:10296000454BBFAAB7A2B5C4D2BBB8F6C1E9C7C927
:10297000B5C4B4AEBFDAB5F7CAD4BBA5BDBBD7E901
:10298000BCFE2CCDA8B9FD200D0A0000CBFC2CC448
:10299000E3BFC9D2D4CDA8B9FDB4AEBFDAD6FACA66
:1029A000D6B5F7D3C3B3CCD0F2C0EFC3E6B5C4C835
:1029B000CEBACEBAAFCAFD2CB2A2D6B4D0D02ED2E7
:1029C000F2B4CB2CC4E3BFC90D0A0000D2D4CBE6CD
:1029D000D2E2B8FCB8C4BAAFCAFDB5C4CAE4C8EB09
:1029E000B2CECAFD28D6A7B3D6CAFDD7D628313075
:1029F0002F3136BDF8D6C629A1A2D7D6B7FBB4AEC3
:102A0000A1A2BAAFCAFDC8EB0D0A0000BFDAB5D863
:102A1000D6B7B5C8D7F7CEAAB2CECAFD292CB5A570
:102A2000B8F6BAAFCAFDD7EEB6E0D6A7B3D6313006
:102A3000B8F6CAE4C8EBB2CECAFD2CB2A2D6A7B390
:102A4000D6BAAFCAFDB7B5200D0A0000BBD8D6B5BF
:102A5000CFD4CABE2ED0C2D4F6B2CECAFDCFD4CA0D
:102A6000BEBDF8D6C6C9E8D6C3B9A6C4DC2CD0C250
:102A7000D4F6BDF8D6C6D7AABBBBB9A6C4DC2E0D0A
:102A80000A000000BCBCCAF5D6A7B3D63A77777760
:102A90002E6F70656E6564762E636F6D0D0A000093
:102AA00055534D415254D3D037B8F6CFB5CDB3C3FB
:102AB000FCC1EE3A0D0A00003F3A202020202020E1
:102AC000BBF1C8A1B0EFD6FAD0C5CFA20D0A000065
:102AD00068656C703A202020BBF1C8A1B0EFD6FA2F
:102AE000D0C5CFA20D0A00006C6973743A20202073
:102AF000BFC9D3C3B5C4BAAFCAFDC1D0B1ED0D0AC9
:102B00000A00000069643A2020202020BFC9D3C3F6
:102B1000BAAFCAFDB5C44944C1D0B1ED0D0A0A002F
:102B20006865783A20202020B2CECAFD3136BDF843
:102B3000D6C6CFD4CABE2CBAF3B8FABFD5B8F12BDB
:102B4000CAFDD7D6BCB4D6B4D0D0BDF8D6C6D7AAA5
:102B5000BBBB0D0A0A0000006465633A20202020F8
:102B6000B2CECAFD3130BDF8D6C6CFD4CABE2CBA5B
:102B7000F3B8FABFD5B8F12BCAFDD7D6BCB4D6B4DA
:102B8000D0D0BDF8D6C6D7AABBBB0D0A0A0000003C
:102B900072756E74696D653A312CBFAAC6F4BAAF0E
:102BA000CAFDD4CBD0D0BCC6CAB13B302CB9D8B149
:102BB000D5BAAFCAFDD4CBD0D0BCC6CAB13B0D0A82
:102BC0000A000000C7EBB0B4D5D5B3CCD0F2B1E069
:102BD000D0B4B8F1CABDCAE4C8EBBAAFCAFDC3FBF2
:102BE000BCB0B2CECAFDB2A2D2D4BBD8B3B5BCFC85
:102BF000BDE1CAF82E0D0A002D2D2D2D2D2D2D2DC8
:102C00002D2D2D2D2D2D2D2D2D2D2D2D2D2D2D2DF4
:102C10002D2D414C49454E54454B2D2D2D2D2D2DFF
:102C20002D2D2D2D2D2D2D2D2D2D2D2D2D2D2D2DD4
:102C30002D2D2D200D0A00002D2D2D2D2D2D2D2D6E
:102C40002D2D2D2D2D2D2D2D2D2D2D2D2D2D2D2DB4
:102C50002DBAAFCAFDC7E5B5A52D2D2D2D2D2D2DD6
:102C60002D2D2D2D2D2D2D2D2D2D2D2D2D2D2D2D94
:102C70002D2D2D2D200D0A0025730D0A00000000BA
:102C800042A0FDF7F5FA8DF8205016E0216806EB1A
:102C9000C0000BAB08580AAA6946FFF75FFB9DF816
:102CA0002010206850F83120694648A0FDF7E0FA6E
:102CB0009DF82000401C8DF82000217D9DF820000B
:102CC0008142E3D85DE0AFF2C030FDF7D1FA08AA47
:102CD00069463846FFF7DCFA9DF82000002843D10A
:102CE00009A96846FFF712FD8DF8200010B10428ED
:102CF0003AD102E03AA009991CE03CA0FDF7B8FAED
:102D00000120E0753DE038A0FDF7B2FA08AA694657
:102D10003846FFF7BDFA9DF8200028BB09A9684690
:102D2000FFF7F4FC8DF8200010B104281CD104E05A
:102D300033A00999FDF79CFA23E034A0FDF798FA37
:102D4000E5751EE028A0FDF793FA08AA6946384603
:102D5000FFF79EFA9DF8200030B909A96846FFF7F1
:102D6000D5FC8DF8200008B10220BFE5099810F0CD
:102D7000FF0084F8EC0001D029A000E02FA0FDF7AF
:102D800077FA19A0AFE50120B0E500002D2D2D2D1B
:102D90002D2D2D2D2D2D2D2D2D2D2D2D2D2D2D2D63
:102DA0002D2D2D2D2DBAAFCAFD204944202D2D2DBE
:102DB0002D2D2D2D2D2D2D2D2D2D2D2D2D2D2D2D43
:102DC0002D2D2D2D2D2D2D2D200D0A002573206943
:102DD000642069733A0D0A3058253038580D0A00BE
:102DE0004845583A305825580D0A00003136BDF88C
:102DF000D6C6B2CECAFDCFD4CABE210D0A0000008D
:102E00004445433A256C750D0A0000003130BDF889
:102E1000D6C6B2CECAFDCFD4CABE210D0A0000006C
:102E200052756E2054696D652043616C63756C61E9
:102E300074696F6E204F4E0D0A00000052756E20AF
:102E400054696D652043616C63756C6174696F6E64
:102E5000204F46460D0A00000160704721F00042F5
:102E6000A2F16052B2F5801F01F0004328BFD2F1F9
:102E70007F6C0BD95FEA001C43EAC20242EB507040
:102E800018BF704728BF20F001007047B2F5801FBF
:102E9000BCBF184670474FEA410C1CF5001F02D218
:102EA000084600F09EBF70B500F0C8FB0000008926
:102EB000FFF7F6BF4FF00040A0F58000704700001C
:102EC00010B591EA030F48BF83F0004300F13A8543
:102ED000841A71EB030C05D2121943EB0C03001B8F
:102EE00061EB0C01DFF824E14FEA1154A4EB135C11
:102EF0001EEA430F18BF9EEA445F73D023EA0E0315
:102F0000DCF1200E21EA045143F4801332D322FA7B
:102F10000CFE10EB0E0023FA0CFE41EB0E01CCF17F
:102F2000200E03FA0EFE10EB0E0051F10001B1F578
:102F3000801FCCF1200E32D201EB045112FA0EF2B6
:102F4000BDE8104058BF7047401C38BF5FEA4202DE
:102F500018BF7047002814BF20F0010041F10001A4
:102F60004FEA410313F5001F38BF7047A1F1C0417C
:102F700000F0B2BB012A43EB0302ACF1200CDCF100
:102F80001F0E32BF4FF0000E23FA0CF310EB0300BC
:102F900041EB0451B4EB115FD0D0A1EB045101F52A
:102FA000801149085FEA300001EB04510ED350F163
:102FB000000038BF12FA0EFE08D1BDE81040C9E784
:102FC000401C38BF5FEA4202CAD1C3E7BDE81040E7
:102FD0004FEA410313F5001F38BF7047A1F1C0410C
:102FE00000F07ABB9EEA445F08D011EA5E0FBDE8AC
:102FF000104004BF01F0004100207047BDE81040C0
:1030000070B500F01BFB00BF64FBBE3E0000E0FF9C
:1030100002494FF0000000F0E9BE00BF0000F87F59
:10302000491058BFC1F140415B1058BFC3F1404344
:103030008B42EFF3008070472DE9C04130B4DFF8D8
:10304000A0C23CEA111418BF3CEA131400F0EC8053
:1030500081EA03051CEA111444EAD57418BF1CEA7E
:10306000131500F0C780A4EB05044FF0004545EAB6
:10307000C12145EAC32341EA505143EA525304F1C6
:103080007F74994204F500344FEAC0204FEAC2220F
:1030900008BF904200F09C804FEA13650FF2401683
:1030A000765D4FEA134506FB05F7C7F1807706FB0F
:1030B00007F74FEAD737A7FB03687642C8F5803891
:1030C000A7FB06CE38BFA8F1010807FB08E64FF0C2
:1030D000000EA6FB028CE6FB03CEDCF1000CCEF169
:1030E000004E38BFAEF1010EA6FB0C584FF00007A2
:1030F0004FF00005E6FB0E87A1FB08C6A0FB07CE3C
:1031000016EB0E0645F10005E1FB076515F1E04EF3
:103110007EBFA4F580345FEA46066D4116F1800754
:1031200045F100054FEA17274FEA066647EA0567AB
:10313000A6F1DE46B6F1805F4FEA15251FD9384665
:1031400024F0010C05EBC471BCF1FE6F01EB0C1116
:1031500002D8F0BCBDE8008124425CBF01F5801EAE
:103160009EEAC47F02D4F0BCBDE80081244238D47A
:10317000F0BCA1F1C041BDE8004100F0ADBA4FEA9A
:10318000D22242EA43524FEAD323A7FB02864FEAF8
:10319000D02040EA415007FB03661EEA0E0F4FEABB
:1031A000D12105FB026658BFA6EB0056B6EB0056D0
:1031B0004FEA520E4EEAC37E18EB0E0E56EB530E3C
:1031C000BDD518EB02085E417F1C55F10005B6E73E
:1031D0004FF480154FF000074FF000064FF0000845
:1031E000ADE7F0BC4FF0000001F1C04101F000413B
:1031F000BDE8008111EA0C1F0CEA131500D00CE0A9
:1032000013EA0C1F00F025804FF00000F0BC81EAAB
:10321000030101F00041BDE80081F0BCBDE80041C0
:1032200081EA030100F058BAF0BCBDE8004170B576
:1032300000F004FA097EFC3E00F007B881EA0301C1
:103240004FF0000001F00041704781EA030100F0F7
:1032500043BAF0BCBDE800414FF00000214970477F
:10326000FFFDFBF9F7F5F4F2F0EEEDEBE9E8E6E44B
:10327000E3E1E0DEDDDBDAD8D7D5D4D3D1D0CFCDD2
:10328000CCCBCAC8C7C6C5C4C2C1C0BFBEBDBCBB0B
:10329000BAB9B8B7B6B5B4B3B2B1B0AFAEADACAB06
:1032A000AAA9A8A8A7A6A5A4A3A3A2A1A09F9F9EE0
:1032B0009D9C9C9B9A999998979796959594939392
:1032C000929191908F8F8E8E8D8C8C8B8B8A898929
:1032D00088888787868585848483838282818180AC
:1032E0000000FF070000F87F51EA030C17D41CF51B
:1032F000801F58BFBCF5801F00F10680994218BF9F
:10330000704708BF9042704707D711F5801F58BF1C
:1033100013F5801F19D499427047894270471CF5F4
:10332000801F08D5BCF5801FF7D58B4218BF7047AA
:1033300008BF824270474FF4001C1CEB410F38BF9E
:103340001CEB430F01D28B42704770B500F076F949
:10335000922449004FF000514FF08053FFF760BEB8
:103360004FEA41034FEA5353A3F58063D3F11E03A1
:10337000C8BFD3F1210C0CDD4FF0004242EAC1225C
:1033800042EA505232FA03FC8CEAE17CACEBE17089
:103390007047102BC4BF0020704703F5787CBCF148
:1033A000FF3F04D06FF0004282EA2100704770B501
:1033B00000F044F94992248000207047F2E70000B1
:1033C0004FEA1153A3F58063D3F11E03A8BFD3F1D5
:1033D000200C08DB4FF0004242EAC12252EA505270
:1033E00032FA03F0704709420BD4102BC4BF0020FF
:1033F000704703F5787CBCF1FF3F05D04FF0FF30FC
:1034000070474FF00000704770B500F017F900BF2B
:103410004992248000207047F0E710F0004248BF36
:103420004042B0FA80F310FA03F10AD0C3F11D0351
:1034300003F580634FEA415002EB035202EBD121C6
:1034400070474FF000007047B0FA80F310FA03F1B4
:103450000AD0C3F11D0303F580634FEA41504FEAE0
:10346000035202EBD12170474FF00000704700007B
:1034700051EA030C17D41CF5801F58BFBCF5801F00
:1034800000F10680994218BF704708BF904270470C
:1034900007D711F5801F58BF13F5801F19D4994223
:1034A0007047894270471CF5801F08D5BCF5801F06
:1034B000F7D58B4218BF704708BF824270474FF460
:1034C000001C1CEB410F38BF1CEB430F01D28B4299
:1034D000704770B500F0B2F8922449004FF00051E7
:1034E0004FF08053FFF79CBDDFF848C170B51CEA70
:1034F000111E1EBF1CEA13159EEA0C0F95EA0C0F55
:1035000000F06F8081EA030423EA4C134EEAD47E74
:1035100021EA4C1141F4801143F48013AE44A1FB25
:10352000024CA0FB0365AEF17F7E361955EB0C050E
:10353000A1FB034C4CF10003A0FB021C16EB0C0694
:10354000654153F10003094218BF46F0010613F428
:10355000007F0BD14FEA03314FEA0530340341EAD3
:10356000155140EA16506FF003020AE04FEAC321FA
:103570004FEAC520F40241EA555140EA56506FF037
:10358000020202EB2E4201EB025585EACE710AD00F
:103590005FEA440C18BF24F0004450F1000041F1F0
:1035A000000120EAD47040F2FE7C624500D270BD7A
:1035B000A84214BF4FF080444FF04044002E08BF93
:1035C0000024BEF1806FA8BFA1F1C041BDE87040EA
:1035D00080F282804FF0000001F1C04101F0004113
:1035E00070479EEA0C0F0CEA131518BF95EA0C0FF2
:1035F00006D04FF0000081EA030E0EF0004170BDCE
:1036000000F01CF88900013E00F007B800F009B88E
:103610004FEA430C5FEA5C5C08D081EA030100F0EA
:103620005BB84FEA410C5FEA5C5CF6D14FF00000FA
:10363000014970470000FF070000F87F0EF1020EFD
:103640002EF0030E5EF8046B364205D4012A43EBDC
:10365000030515F5001F12D8012841EB010C1CF5DC
:10366000001F0CD80ED14FEAD17C15F5001F0CEBD2
:103670004C0C0CF1020C08BF4CEBD37C04E04FF077
:10368000080C01E04FEAD37C0CEB4C0526FA05F65A
:1036900006F00706B6F1040C06D20EEB860CBDE868
:1036A00070404CF0010C6047DFE80CF0090B02029F
:1036B0004FF000414FF00000A1F5002170BD194608
:1036C0001046012851EB010418BFD4F5001484BF43
:1036D000002001F0004170BD0808A0F500114FEA7C
:1036E0003101704753EA010C17D41CF5801F58BFF5
:1036F000BCF5801F00F106808B4218BF704708BFE1
:103700008242704707D713F5801F58BF11F5801FFD
:1037100019D48B4270479B4270471CF5801F08D517
:10372000BCF5801FF7D5994218BF704708BF90427B
:1037300070474FF4001C1CEB430F38BF1CEB410FCC
:1037400001D2994270470FB40CBC03BCFFF7C1BE55
:1037500091EA030F10B581F000413FF5B9AB83F05A
:10376000004300F0EFB800002DE9F04101F5801CA6
:10377000BCF5001FC0F2C3804FEA115C21EA0C5176
:103780000CF1FD0C41F480115FEA5C0C0CF5C07C7F
:1037900001D3400049413DA4890241EA905187028A
:1037A0008E0E0A0CA45D04FB04F602FB06F6C6F1BD
:1037B0004046A4FB0662F60D46EA422606FB06F4E6
:1037C000A4FB01235242C3F1404338BF5B1EA6FB5A
:1037D00002420024E6FB0324D20B42EA4446A6FB45
:1037E0000623A1FB02E2A3FB07E4A4184FF00002AA
:1037F00052F10002E3FB01426442C2F1404E38BF85
:10380000AEF1010EA6FB04234FF00002E6FB0E32E0
:10381000A2FB03464FF00004B61954F10004E2FB8A
:103820000264A1FB06E6A4FB07E816EB08064FF0CE
:10383000000858F10008E4FB01687642C8F14058DE
:1038400038BFA8F10108A2FB06E4A3FB08E52D1987
:103850004FF0000454F10004E2FB0854A1FB05E61C
:10386000A7FB04E818EB06084FF0000656F1000627
:10387000E1FB048618F1200556F10006A809A8F11D
:103880001B08B10908F03F08B8F10A0F40EA86604A
:103890001CD901EB0C51BDE8F08100BFFCF5EEE84E
:1038A000E2DDD8D3CFCBC7C3C0BDB9B6B4B1AEACDF
:1038B000A9A7A5A3A19F9D9B9A9896959392908F57
:1038C0008D8C8B898887868584838281A0FB0068A4
:1038D00000FB01F208EB4208B8EB872807D5341843
:1038E00058EB0104D5D5401C51F10001D1E7341A41
:1038F00078EB0104CDD4401E71F10001C9E75FEA05
:103900004C0C5FEA9C5C0DD105D34FF0000001F038
:103910000041BDE8F081BDE8F04170B5FFF78EFED3
:103920006DDBFFBEBDE8F0414FF00000004970477D
:103930000000F87F10B591EA030F48BF83F0004301
:103940003FF5C6AA841A71EB030C07D212198CF04A
:10395000004C43EB0C03001B61EB0C01DFF8A4E10E
:103960004FEA1154A4EB135C1EEA430F18BF9EEA02
:10397000445F00F0B08023EA6E03524221EA045112
:10398000C3EB6E0338BF5B1EDCF1200E25D322FA99
:103990000CFE10EB0E0043FA0CFE41EB0E01CCF1D5
:1039A000200E03FA0EFE10EB0E0051F10001CCF1D7
:1039B000200E29D412FA0EF201EB0451BDE810409A
:1039C00058BF7047401C1CBFB2F1004F7047002821
:1039D0000CBF491C20F00100704712EB020E43EBB4
:1039E000030218BF4FF0010E4EEA4202ACF1200C68
:1039F000DCF11E0E54D943FA0CFE10EB0E0051F10F
:103A0000FF31CCF11E0ED5D50EF1010E12FA0EFECD
:103A1000404141EB010101EB445C5FEA5C5C10D981
:103A200010EBDE7001EB045138BFBEF1004FBDE872
:103A3000104018BF704700280CBF491C20F001003F
:103A4000704730D24FEAD42C11F5001124F40064F1
:103A50001BD0B1FA81F20B3AA41AA41ED2F12003B2
:103A6000914030FA03F31943904001EBCC71002CE4
:103A700001EB0451BDE81040A8BF704701F1C041FF
:103A80004FF0000001F000417047B0FA80F310FAE7
:103A900003F100D110BDE41A173C4805C90AE4E758
:103AA00001EB045110BD491001EB0451BDE8104079
:103AB0004FEA300002E04FF0000170474A0008BFB3
:103AC0000042F8D0B2F5001F28BF704701F0004156
:103AD0004FF0000070479EEA445F07D011EA5E0F86
:103AE000BDE8104004BF002100207047BDE8104031
:103AF00070B5FFF7A3FD00BF40DFF63E83F0004145
:103B0000104670470000E0FF43004FEAD30C4FEA35
:103B10003C0C43401FBF40070CF1605113F0FE4FB7
:103B200070471CF0006F03D100200CF0004170477B
:103B30000CF0004343EA507010B540EACC0000F0AE
:103B40000AF900BF000000924FEA0001FFF7C4BD70
:103B50004FF000414FF00000A1F500217047000038
:103B6000014800F043B900BF0000C07F4FF47F0C54
:103B70001CEAD0121EBF1CEAD11392EA0C0F93EA82
:103B80000C0F00F0858090EA010F48BF42F480726C
:103B900040F4000C41F400002CF07F4120F07F4005
:103BA00000B58142A2EB03020FF2081CACEB504EB1
:103BB000C0F100009EF800E04FEA4E0E00FB0EFC44
:103BC00038BF49004FEA2C1C02F5FA020CFB0EF339
:103BD0004FEACE1E4FEA112C4FEAC1210EEB635E75
:103BE00042EB22420EFB0CFC4FEA1C5300FB03117C
:103BF0004FEA112C4FEA01310EFB0CFC4FEADC4C72
:103C000000FB0C11C14228BF09184CEB03335DF8CF
:103C100004EB10EB410143EBC250B2F57C0F38BF0F
:103C2000704729D512F0F00F1CBF00F1C04000F022
:103C300000407047008182838485868788898B8CC9
:103C40008D8E8F919293959697999A9C9D9FA0A205
:103C5000A3A5A7A8AAACAEB0B2B3B5B7B9BCBEC055
:103C6000C2C5C7C9CCCED1D4D7D9DCDFE2E6E9ECF6
:103C7000F0F3F7FAFE0000004FEA400C0CF1807CF4
:103C8000BCF17E4F28BF7047B0F1C04000F0A9B82A
:103C900090EA010F0CEAD11348BF42F480726245EA
:103CA00038BF634507D213F47F0F16D080EA0100B6
:103CB00000F00040704710B500F04DF8097EFC3E62
:103CC00000F005B880EA010000F00040704780EA8B
:103CD000010000F0004000F084B812F47F0F04BF30
:103CE0000248704780EA010000F07BB80000C07F06
:103CF000C10DD1F19E0206DB4FEA002343F00043E1
:103D000023FA02F07047004207D54FEA4001B1F1B3
:103D1000FE4F02D24FF00000704710B500F01BF8C4
:103D200049922480002070476FEA2000704700000D
:103D3000B0FA80F310FA03F2C3F19D030AD0D9055B
:103D400001EB1220530638BF704700F1010008BF95
:103D500020F0010070470EF1020E2EF0030E5EF807
:103D6000044B244204D44FEA4102B2F17F4F11D8F0
:103D70004FEA4003B3F17F4F0CD80ED14FEAD07C0D
:103D8000B2F17F4F0CEB4C0C0CF1020C08BF4CEB6A
:103D9000D17C04E04FF0080C01E04FEAD17C0CEB41
:103DA0004C0324FA03F404F00704B4F1040C06D223
:103DB0000EEB840CBDE810404CF0010C6047DFE8CE
:103DC0000CF0070802024FF00040A0F5800010BD83
:103DD0000846420018BFD2F1807288BF00F0004050
:103DE00010BDFF2141EAD050C00570470CF00F0311
:103DF000092B08BF082000F07F800A2B0BD0082B6E
:103E000018BF704708BF1CF0400F0AD04FF00000E9
:103E10004FF0000170471CF0400F18BF4FF00040FA
:103E200070471CF0100F08D020F0704300F07F4264
:103E300042EAD3014FEA4370704700F0604021F03E
:103E40007F4242EA000201F07F4040EA7270704710
:103E50004FF0FF0C4CF4E06C1CEA11531CBF9CEAC1
:103E6000030C9445C2BFDA4201EB02517047002BAC
:103E70000DD0BCF1000F0FD0002A01F00041A4BF0B
:103E800041F0E04141F07F614FF00000704701F0E8
:103E900000414FF00000704750EA01334FF09B0C97
:103EA00018BF4CF0806C7FF4B3A870474FF0FF024E
:103EB00012EAD0521CBF92F0FF038B42C2BFD14224
:103EC00000EBC1507047002A0AD0002B0BD000290C
:103ED00000F00040A4BF40F0FE4040F400007047F6
:103EE00000F00040704743024FF00B0C18BF4CF03D
:103EF000806C7FF435AE70471CF4801F11D01CF429
:103F0000E02F03D06FEACC31490070474FF04050AA
:103F1000EFF3008222F0704242EA000282F300884E
:103F200070474FF000007047303132333435363748
:103F300038394142434445464030580030313233ED
:103F400034353637383961626364656640307800ED
:103F50000400000800000000000000020001000052
:103F60001000000000000000000000000000F03F12
:103F7000000000000000F83F00000000000000000A
:103F80000000004003B8E23F000000000000000015
:103F900006D0CF43EBFD4C3E033333333333E33FA3
:103FA000FFAB6FDBB66DDB3F4D268F515555D53FCF
:103FB00001411DA96074D13F65DBC9934A86CD3F9D
:103FC000EF4E454A287ECA3F3E5555555555C53F8B
:103FD00093BDBE166CC166BF2CDE25AF6A56113F7D
:103FE000F16BD2C541BDBBBED0A4BE726937663E7F
:103FF0004C5555555555A53F7751C1166CC156BF07
:104000009015CB19A001FA3EAD529C804F7E92BE16
:10401000C4B1B4BD9EEE213ED43888BEE9FAA8BD35
:10402000000000000000000000004054FB21F93FA8
:104030003163621A61B4D03D0000601A61B4D03DB2
:104040007370032E8A19A33B0000002E8A19A33B2C
:10405000C14920259A837B39000000000000000040
:104060006E83F9A22915444ED15727FCC0DD34F5E3
:10407000999562DB4190433CAB6351FE61C5BBDE69
:104080003A6E24B7E0D24D42EA2E49061C92D1097D
:104090001CEB1DFE3EA729B1F53582E88444BB2EFA
:1040A00026709CE9417E5FB439D69139F439538347
:1040B0008B5F849C3B28F9BDFF97F81F0F9805DEA6
:1040C0008B112FEF1F6D0A5ACF7E366DB709CB27A4
:1040D000663F464F2DEA5F9EC7BA27757BF1E5EB39
:1040E000F739073DEA92528AB15FFB6B085D8D1F7D
:1040F000A6F810111111813FD561C119A0012ABF85
:104100007DFEB157E31DC73EEB9C2B8AE6E55ABE08
:104110007CD5CF5A3AD9E53D3F0000006465630085
:104120006964000072756E74696D650068656C7015
:10413000000000006C69737400000000686578007E
:10414000766F69642077726974655F616464722850
:1041500075333220616464722C7533322076616C61
:1041600029000000766F696420446163315F536504
:10417000745F566F6C2875313620766F6C2900009D
:1041800075333220726561645F61646472287533CF
:104190003220616464722900766F69642064656C02
:1041A00061795F6D7328753136206E6D732900005B
:1041B000766F69642064656C61795F757328753307
:1041C00032206E7573290000E841000800000020CD
:1041D000440100006C01000838420008440100203E
:1041E0002C070000C8010008C11318411B082C044B
:1041F0001A34041A20041A3C041A1C041A24041346
:10420000AD1E1B08800813592E1B084008135D13B0
:104210001B0898081A91081AB0081301081B0864B3
:104220000822281420F12514089D1F1C0831203075
:08423000122623080502DC013F
:0400000508000131BD
:00000001FF
